:020000040800F2
:1000000000500020710900080D09000815090008BA
:100010001D090008250900082D090008000000003E
:10002000000000000000000000000000350900088A
:1000300041090008000000004D09000859090008A6
:10004000B9090008B9090008B9090008B909000888
:10005000B9090008B9090008B9090008B909000878
:10006000B9090008B9090008B9090008B909000868
:10007000B9090008B9090008B9090008B909000858
:10008000B9090008B9090008B9090008B909000848
:10009000B9090008B9090008B9090008B909000838
:1000A000B9090008B9090008B9090008B909000828
:1000B000B9090008B9090008B9090008B909000818
:1000C000B9090008B9090008B9090008B909000808
:1000D000B9090008B9090008B9090008B9090008F8
:1000E000B9090008B9090008B909000800000000B2
:1000F0000000000000000000000000000000000000
:0C01000000000000000000005FF808F1A3
:10010C0010B5054C237833B9044B13B10448AFF345
:10011C0000800123237010BD0C00002000000000A3
:10012C005028000808B5034B1BB103490348AFF333
:10013C00008008BD000000001000002050280008BE
:10014C0080B586B002AF0346FB71FB7923F00F0339
:10015C00FB73FB791B01BB73FB7B43F00C03DBB222
:10016C003B72FB7B43F00803DBB27B72BB7B43F03F
:10017C000C03DBB2BB72BB7B43F00803DBB2FB723C
:10018C0007F108026423009304234E21034801F075
:10019C0041F800BF1037BD4680BD00BF28000020CD
:1001AC0080B586B002AF0346FB71FB7923F00F03D9
:1001BC00FB73FB791B01BB73FB7B43F00D03DBB2C1
:1001CC003B72FB7B43F00903DBB27B72BB7B43F0DE
:1001DC000D03DBB2BB72BB7B43F00903DBB2FB72DA
:1001EC0007F108026423009304234E21034801F015
:1001FC0011F800BF1037BD4680BD00BF280000209D
:10020C0080B500AF322000F035FC3020FFF798FFAE
:10021C00052000F02FFC3020FFF792FF012000F0AA
:10022C0029FC3020FFF78CFF0A2000F023FC202053
:10023C00FFF786FF0A2000F01DFC2820FFF780FF47
:10024C000820FFF77DFF0120FFF77AFF022000F066
:10025C0011FC0620FFF774FF0C20FFF771FF00BFA5
:10026C0080BD80B582B000AF786006E07B685A1C18
:10027C007A601B781846FFF793FF7B681B78002B7E
:10028C00F4D100BF00BF0837BD4680BD80B500AFBC
:10029C000120FFF755FF022000F0ECFB00BF80BDF2
:1002AC0080B584B000AF786039607B68002B04D1D6
:1002BC003B68DBB2803BFB7303E03B68DBB2403B4B
:1002CC00FB73FB7B1846FFF73BFF00BF1037BD46A7
:1002DC0080BD000080B485B000AF03463960FB8060
:1002EC00FB88644AA2FB03235B097B81FB88614A80
:1002FC00A2FB03125209642101FB02F29B1A9BB26E
:10030C007B720023FB607B8942F20F7293420FD900
:10031C007B89594AA2FB03235B0B9BB2DAB2FB68C5
:10032C00591CF96019463B680B443032D2B21A7032
:10033C007B89B3F57A7F19D37B89504AA2FB0323BF
:10034C009B099AB24E4BA3FB0213D9080B469B0098
:10035C000B445B00D31A9BB2DAB2FB68591CF960F0
:10036C0019463B680B443032D2B21A707B89632B2E
:10037C0019D97B893F4AA2FB03235B099AB2404BF4
:10038C00A3FB0213D9080B469B000B445B00D31A4A
:10039C009BB2DAB2FB68591CF96019463B680B44F6
:1003AC003032D2B21A707B89092B19D97B89344A25
:1003BC00A2FB0323DB089AB2314BA3FB0213D9082F
:1003CC000B469B000B445B00D31A9BB2DAB2FB6862
:1003DC00591CF96019463B680B443032D2B21A7082
:1003EC007A89274BA3FB0213D9080B469B000B44BD
:1003FC005B00D31A9BB2DAB2FB68591CF960194640
:10040C003B680B443032D2B21A70FB685A1CFA604B
:10041C001A463B6813442E221A707B7A184AA2FBA8
:10042C000323DB08DAB2FB68591CF96019463B68F8
:10043C000B443032D2B21A707A7A114BA3FB0213EE
:10044C00D9080B469B000B445B00D31ADAB2FB684D
:10045C00591CF96019463B680B443032D2B21A7001
:10046C00FB683A68134400221A7000BF1437BD466B
:10047C0080BC70471F85EB515917B7D1D34D621013
:10048C00CDCCCCCC80B487B000AF786039607B68C1
:10049C00444AA2FB03235B097B617A68414BA3FBB3
:1004AC0002135B09642101FB03F3D31AFB740023D1
:1004BC00FB607B693B4AA2FB032359093A4BA3FB24
:1004CC000123DA0813469B0013445B00CA1AD2B20C
:1004DC00FB68591CF96019463B680B443032D2B2A8
:1004EC001A707B69304AA2FB0323D9082E4BA3FB5D
:1004FC000123DA0813469B0013445B00CA1AD2B2DC
:10050C00FB68591CF96019463B680B443032D2B277
:10051C001A707969244BA3FB0123DA0813469B005C
:10052C0013445B00CA1AD2B2FB68591CF960194615
:10053C003B680B443032D2B21A70FB685A1CFA601A
:10054C001A463B6813442E221A70FB7C164AA2FBF7
:10055C000323DB08DAB2FB68591CF96019463B68C7
:10056C000B443032D2B21A70FA7C0F4BA3FB02133D
:10057C00D9080B469B000B445B00D31ADAB2FB681C
:10058C00591CF96019463B680B443032D2B21A70D0
:10059C00FB683A68134400221A7000BF1C37BD4632
:1005AC0080BC70471F85EB51CDCCCCCC80B58CB0CA
:1005BC0002AF00F0FDF900F095F800F0FDF800F046
:1005CC00CDF8FFF71DFEFFF761FE07F1140264235F
:1005DC000093072324213C4800F01AFF3B7D1BB2FB
:1005EC001B021AB27B7D1BB213431BB2FB84BB7D77
:1005FC001BB21B021AB2FB7D1BB213431BB2BB8492
:10060C003B7E1BB21B021AB27B7E1BB213431BB286
:10061C007B84FFF73BFE00210020FFF741FE2B48B7
:10062C00FFF71FFE3A1DFB8C11461846FFF752FED2
:10063C003B1D1846FFF715FE2548FFF712FE092152
:10064C000020FFF72DFE3A1DBB8C11461846FFF714
:10065C0041FE3B1D1846FFF704FE1E48FFF701FE46
:10066C0000210120FFF71CFE3A1D7B8C1146184619
:10067C00FFF730FE3B1D1846FFF7F3FDDF20FFF7B9
:10068C008FFD1548FFF7EDFD09210120FFF708FE4E
:10069C00FB8CBA8C02FB03F3FB61FB690F4AA2FBD8
:1006AC0003235B09FB613B1D1946F869FFF7EAFE62
:1006BC003B1D1846FFF7D5FD0948FFF7D2FDC820B2
:1006CC0000F0D8F900BF80E7280000206828000857
:1006DC006C28000870280008742800081F85EB514E
:1006EC007828000880B590B000AF07F118032822D5
:1006FC000021184602F07AF83B1D00221A605A605D
:10070C009A60DA601A610123BB614FF48033FB619C
:10071C0000237B6307F11803184601F06BFC0346BA
:10072C00002B01D000F076F80F237B600123BB6017
:10073C000023FB604FF480633B6100237B613B1D16
:10074C000021184601F0D8FE0346002B01D000F022
:10075C0061F800BF4037BD4680BD000080B500AFDA
:10076C00124B134A1A60114B124A5A600F4B00225B
:10077C009A600E4B0022DA600C4B4FF480421A61E7
:10078C000A4B00225A61094B00229A61074B002246
:10079C00DA61064B00221A62044800F0F7FB0346AC
:1007AC00002B01D000F036F800BF80BD28000020DF
:1007BC0000540040A086010080B485B000AF144BFB
:1007CC009B69134A43F020039361114B9B6903F01F
:1007DC002003FB60FB680E4B9B690D4A43F004033E
:1007EC0093610B4B9B6903F00403BB60BB68084B24
:1007FC009B69074A43F008039361054B9B6903F01F
:10080C0008037B607B6800BF1437BD4680BC704713
:10081C000010024080B400AF72B600BF00BFFDE70D
:10082C0080B485B000AF154B9B69144A43F00103AB
:10083C009361124B9B6903F00103BB60BB680F4BC8
:10084C00DB690E4A43F08053D3610C4BDB6903F038
:10085C0080537B607B680A4B5B68FB60FB6823F012
:10086C00E063FB60FB6843F00073FB60044AFB68C9
:10087C00536000BF1437BD4680BC70470010024067
:10088C000000014080B588B000AF786007F110031C
:10089C0000221A605A609A60DA607B681B68154AFD
:1008AC00934223D1144B9B69134A43F00803936181
:1008BC00114B9B6903F00803FB60FB68C0233B6191
:1008CC0012237B610323FB6107F1100319460B48CC
:1008DC0000F0D8F9084BDB69074A43F40013D361E5
:1008EC00054BDB6903F40013BB60BB6800BF20370A
:1008FC00BD4680BD0054004000100240000C014079
:10090C0080B400AF00BFFDE780B400AF00BFFDE7CF
:10091C0080B400AF00BFFDE780B400AF00BFFDE7BF
:10092C0080B400AF00BFFDE780B400AF00BFBD4690
:10093C0080BC704780B400AF00BFBD4680BC704720
:10094C0080B400AF00BFBD4680BC704780B500AF1F
:10095C0000F074F800BF80BD80B400AF00BFBD468E
:10096C0080BC7047FFF7F8FF0B480C490C4A00237A
:10097C0002E0D458C4500433C4188C42F9D3094A49
:10098C00094C002301E013600432A242FBD301F0B6
:10099C0035FFFFF70BFE7047000000200C00002015
:1009AC00B02800080C00002080000020FEE70000AA
:1009BC0080B500AF084B1B68074A43F01003136067
:1009CC00032000F02BF90F2000F008F8FFF728FFA8
:1009DC000023184680BD00BF0020024080B582B0C5
:1009EC0000AF7860124B1A68124B1B7819464FF403
:1009FC007A73B3FBF1F3B2FBF3F3184600F035F95D
:100A0C000346002B01D001230EE07B680F2B0AD884
:100A1C00002279684FF0FF3000F00BF9064A7B6832
:100A2C001360002300E0012318460837BD4680BD43
:100A3C0000000020080000200400002080B400AF5B
:100A4C00054B1B781A46054B1B681344034A13606D
:100A5C0000BFBD4680BC7047080000207C00002011
:100A6C0080B400AF024B1B681846BD4680BC704773
:100A7C007C00002080B584B000AF7860FFF7F0FFF9
:100A8C00B8607B68FB60FB68B3F1FF3F05D00A4B95
:100A9C001B781A46FB681344FB6000BFFFF7E0FFAE
:100AAC000246BB68D31AFA689A42F7D800BF00BF57
:100ABC001037BD4680BD00BF0800002080B485B053
:100ACC0000AF78607B6803F00703FB600C4BDB68BE
:100ADC00BB60BA684FF6FF031340BB60FB681A0299
:100AEC00BB68134343F0BF6343F40033BB60044A59
:100AFC00BB68D36000BF1437BD4680BC704700BFD5
:100B0C0000ED00E080B400AF044BDB681B0A03F07F
:100B1C0007031846BD4680BC704700BF00ED00E0DF
:100B2C0080B483B000AF03463960FB7197F907308E
:100B3C00002B0ADB3B68DAB20C4997F9073012013B
:100B4C00D2B20B4483F800230AE03B68DAB20849BE
:100B5C00FB7903F00F03043B1201D2B20B441A765B
:100B6C0000BF0C37BD4680BC704700BF00E100E001
:100B7C0000ED00E080B489B000AFF860B9607A6035
:100B8C00FB6803F00703FB61FB69C3F10703042B4C
:100B9C0028BF0423BB61FB690433062B02D9FB6914
:100BAC00033B00E000237B614FF0FF32BB6902FA8C
:100BBC0003F3DA43BB681A407B699A404FF0FF316C
:100BCC007B6901FA03F3D9437B680B401343184646
:100BDC002437BD4680BC704780B582B000AF7860CA
:100BEC007B68013BB3F1807F01D301230FE00A4AFC
:100BFC007B68013B53600F214FF0FF30FFF790FFF4
:100C0C00054B00229A60044B07221A6000231846F9
:100C1C000837BD4680BD00BF10E000E080B582B053
:100C2C0000AF78607868FFF749FF00BF0837BD4612
:100C3C0080BD80B586B000AF0346B9607A60FB73A7
:100C4C0000237B61FFF75EFF78617A68B968786989
:100C5C00FFF790FF024697F90F3011461846FFF741
:100C6C005FFF00BF1837BD4680BD80B582B000AFB6
:100C7C0078607868FFF7B0FF034618460837BD4622
:100C8C0080BD000080B48BB000AF78603960002369
:100C9C007B6200233B6269E101227B6A02FA03F367
:100CAC00FB613B681B68FA691340BB61BA69FB695D
:100CBC009A4240F058813B685B689A4A93425ED0F6
:100CCC00984A934275D8984A934258D0964A934280
:100CDC006FD8964A934252D0944A934269D8944A18
:100CEC0093424CD0924A934263D8924A934246D054
:100CFC00904A93425DD8122B2AD8122B59D801A2B4
:100D0C0052F823F08B0D0008650D0008770D0008D4
:100D1C00B90D0008BF0D0008BF0D0008BF0D00087D
:100D2C00BF0D0008BF0D0008BF0D0008BF0D000867
:100D3C00BF0D0008BF0D0008BF0D0008BF0D000857
:100D4C00BF0D0008BF0D00086D0D0008810D0008D7
:100D5C00794A934213D02CE03B68DB683B6229E074
:100D6C003B68DB6804333B6224E03B68DB68083398
:100D7C003B621FE03B68DB680C333B621AE03B686C
:100D8C009B68002B02D104233B6213E03B689B68F9
:100D9C00012B05D108233B627B68FA691A6109E0D3
:100DAC0008233B627B68FA695A6103E000233B62CB
:100DBC0000E000BFBB69FF2B01D87B6801E07B68BA
:100DCC0004337B61BB69FF2B02D87B6A9B0002E07A
:100DDC007B6A083B9B003B617B691A680F213B696E
:100DEC0001FA03F3DB431A40396A3B6901FA03F356
:100DFC001A437B691A603B685B6803F08053002BD5
:100E0C0000F0B1804D4B9B694C4A43F00103936158
:100E1C004A4B9B6903F00103BB60BB68484A7B6A81
:100E2C009B08023352F82330FB607B6A03F0030308
:100E3C009B000F2202FA03F3DB43FA681340FB60BA
:100E4C007B68404A934213D07B683F4A93420DD053
:100E5C007B683E4A934207D07B683D4A934201D15E
:100E6C00032306E0042304E0022302E0012300E054
:100E7C0000237A6A02F0030292009340FA6813434B
:100E8C00FB602F497B6A9B080233FA6841F82320E8
:100E9C003B685B6803F48013002B06D02D4B9A68DB
:100EAC002C49BB6913438B6006E02A4B9A68BB69DB
:100EBC00DB43284913408B603B685B6803F40013E9
:100ECC00002B06D0234BDA682249BB691343CB6055
:100EDC0006E0204BDA68BB69DB431E491340CB604C
:100EEC003B685B6803F40033002B06D0194B5A683F
:100EFC001849BB6913434B6006E0164B5A68BB6933
:100F0C00DB43144913404B603B685B6803F480334C
:100F1C00002B21D00F4B1A680E49BB6913430B6091
:100F2C0021E000BF00003210000031100000221040
:100F3C0000002110000012100000111000100240DF
:100F4C000000014000080140000C0140001001406D
:100F5C0000140140000401400B4B1A68BB69DB43D1
:100F6C00094913400B607B6A01337B623B681A684A
:100F7C007B6A22FA03F3002B7FF48EAE00BF00BF16
:100F8C002C37BD4680BC70470004014080B584B04E
:100F9C0000AF78607B68002B01D101232BE17B68CB
:100FAC0093F83D30DBB2002B06D17B68002283F82E
:100FBC003C207868FFF766FC7B68242283F83D2090
:100FCC007B681B681A687B681B6822F001021A6038
:100FDC007B681B681A687B681B6842F400421A60C5
:100FEC007B681B681A687B681B6822F400421A60D5
:100FFC0001F0CAFBF8607B685B68814A934207D8B2
:10100C00FB68804A934294BF01230023DBB206E0C5
:10101C00FB687D4A934294BF01230023DBB2002B73
:10102C0001D00123E7E0FB68784AA2FB03239B0C69
:10103C00BB607B681B685B6823F03F017B681B68A7
:10104C00BA680A435A607B681B681B6A23F03F012D
:10105C007B685B686A4A934202D8BB68013309E03B
:10106C00BB684FF4967202FB03F3694AA2FB03239D
:10107C009B0901337A6812680B4313627B681B6807
:10108C00DB6923F44F4222F0FF027B685B685C490A
:10109C008B4219D8FB68591E7B685B685B00B1FBFF
:1010AC00F3F3591C40F6FC730B40002B0AD0FB6881
:1010BC00591E7B685B685B00B1FBF3F30133C3F330
:1010CC000B0351E004234FE07B689B68002B11D18C
:1010DC00FB68581E7B6859680B465B000B44B0FBE1
:1010EC00F3F30133C3F30B03002B0CBF01230023D9
:1010FC00DBB212E0FB68581E7B6859680B469B00FC
:10110C000B4499000B44B0FBF3F30133C3F30B0313
:10111C00002B0CBF01230023DBB2002B01D00123D9
:10112C0022E07B689B68002B0ED1FB68581E7B6805
:10113C0059680B465B000B44B0FBF3F30133C3F36C
:10114C000B0343F400430FE0FB68581E7B6859689F
:10115C000B469B000B4499000B44B0FBF3F301339B
:10116C00C3F30B0343F44043796809681343CB6121
:10117C007B681B681B6823F0C0017B68DA697B689D
:10118C001B6A1A437B681B680A431A607B681B68DE
:10119C009B6823F4034323F0FF037A6811697A6890
:1011AC00D26811437A6812680B4393607B681B68A2
:1011BC00DB6823F0FF017B685A697B689B691A43E3
:1011CC007B681B680A43DA607B681B681A687B685B
:1011DC001B6842F001021A607B6800221A647B686B
:1011EC00202283F83D207B6800221A637B68002252
:1011FC0083F83E20002318461037BD4680BD00BF43
:10120C00A08601007F841E00FF083D0083DE1B4387
:10121C00D34D621080B588B002AFF8607A601A4680
:10122C000B467B8113463B81FFF71AFC7861FB6808
:10123C0093F83D30DBB2202B40F0E0807B690093CB
:10124C00192301227049F86800F09EFC0346002B1C
:10125C0001D00223D3E0FB6893F83C30012B01D181
:10126C000223CCE0FB68012283F83C20FB681B685E
:10127C001B6803F00103012B07D0FB681B681A687D
:10128C00FB681B6842F001021A60FB681B681A6855
:10129C00FB681B6822F400621A60FB68212283F849
:1012AC003D20FB68102283F83E20FB6800221A6464
:1012BC00FB687A685A62FB683A895A85FB685B8DD1
:1012CC009AB2FB681A85FB68504ADA6279897B69A5
:1012DC003A6AF86800F008FB0346002B01D00123A2
:1012EC008DE000233B61FB681B685B693B61FB681D
:1012FC001B689B693B613B6966E07A69396AF868EF
:10130C0000F05CFD0346002B0DD0FB681B6C042B1E
:10131C0007D1FB681B681A68FB681B6842F40072F3
:10132C001A6001236BE0FB685B6A1A78FB681B6828
:10133C001A61FB685B6A5A1CFB685A62FB685B8D1E
:10134C009BB2013B9AB2FB685A85FB681B8D013B33
:10135C009AB2FB681A85FB681B685B6903F004038F
:10136C00042B1BD1FB681B8D002B17D0FB685B6A11
:10137C001A78FB681B681A61FB685B6A5A1CFB686D
:10138C005A62FB685B8D9BB2013B9AB2FB685A8533
:10139C00FB681B8D013B9AB2FB681A857A69396A26
:1013AC00F86800F053FD0346002B0DD0FB681B6C56
:1013BC00042B07D1FB681B681A68FB681B6842F496
:1013CC0000721A6001231AE0FB681B8D002B94D16C
:1013DC00FB681B681A68FB681B6842F400721A6091
:1013EC00FB68202283F83D20FB68002283F83E2016
:1013FC00FB68002283F83C20002300E002231846FF
:10140C001837BD4680BD00BF020010000000FFFF72
:10141C0080B58CB002AFF8607A601A460B467B81BF
:10142C0013463B8100233B62FFF71AFB7862FB6893
:10143C0093F83D30DBB2202B40F04B827B6A00935B
:10144C00192301227F49F86800F09EFB0346002B0C
:10145C0001D002233EE2FB6893F83C30012B01D112
:10146C00022337E2FB68012283F83C20FB681B68EF
:10147C001B6803F00103012B07D0FB681B681A687B
:10148C00FB681B6842F001021A60FB681B681A6853
:10149C00FB681B6822F400621A60FB68222283F846
:1014AC003D20FB68102283F83E20FB6800221A6462
:1014BC00FB687A685A62FB683A895A85FB685B8DCF
:1014CC009AB2FB681A85FB685F4ADA6279897B6A93
:1014DC003A6BF86800F08AFA0346002B01D001231E
:1014EC00F8E1FB681B8D002B13D10023FB61FB681B
:1014FC001B685B69FB61FB681B689B69FB61FB6993
:10150C00FB681B681A68FB681B6842F400721A605F
:10151C00CCE1FB681B8D012B1ED1FB681B681A6884
:10152C00FB681B6822F480621A6072B600BF00234D
:10153C00BB61FB681B685B69BB61FB681B689B69D3
:10154C00BB61BB69FB681B681A68FB681B6842F4CB
:10155C0000721A6062B635E0FB681B8D022B1ED13F
:10156C00FB681B681A68FB681B6842F400621A600F
:10157C0072B600BF00237B61FB681B685B697B61F3
:10158C00FB681B689B697B617B69FB681B681A683D
:10159C00FB681B6822F480621A6062B612E0FB687A
:1015AC001B681A68FB681B6842F480621A6000238F
:1015BC003B61FB681B685B693B61FB681B689B6953
:1015CC003B613B6972E1FB681B8D032B00F21F81B1
:1015DC00FB681B8D012B23D17A6A396BF86800F0FC
:1015EC007DFC0346002B01D0012373E1FB681B68D3
:1015FC001A69FB685B6AD2B21A70FB685B6A5A1C88
:10160C00FB685A62FB681B8D013B9AB2FB681A851A
:10161C00FB685B8D9BB2013B9AB2FB685A8545E136
:10162C00FB681B8D022B52D17B6A00933B6B002213
:10163C000649F86800F0A8FA0346002B08D00123ED
:10164C0048E100BF020010000000FFFF0400010091
:10165C0072B600BFFB681B681A68FB681B6842F413
:10166C0000721A60FB681B681A69FB685B6AD2B26D
:10167C001A70FB685B6A5A1CFB685A62FB681B8D0C
:10168C00013B9AB2FB681A85FB685B8D9BB2013BF0
:10169C009AB2FB685A8562B600BFFB681B681A6970
:1016AC00FB685B6AD2B21A70FB685B6A5A1CFB68F7
:1016BC005A62FB681B8D013B9AB2FB681A85FB686A
:1016CC005B8D9BB2013B9AB2FB685A85EEE07B6A5C
:1016DC0000933B6B00228149F86800F055FA0346F1
:1016EC00002B01D00123F5E0FB681B681A68FB682E
:1016FC001B6822F480621A6072B600BFFB681B681C
:10170C001A69FB685B6AD2B21A70FB685B6A5A1C76
:10171C00FB685A62FB681B8D013B9AB2FB681A8509
:10172C00FB685B8D9BB2013B9AB2FB685A856C4B94
:10173C001B68DB086B4AA2FB03231A0A13469B00A7
:10174C001344DA00D31A3B623B6A013B3B623B6AAF
:10175C00002B18D1FB6800221A63FB68202283F847
:10176C003D20FB68002283F83E20FB681B6C43F095
:10177C002002FB681A6462B600BFFB68002283F883
:10178C003C200123A6E0FB681B685B6903F00403A3
:10179C00042BD9D1FB681B681A68FB681B6842F4E0
:1017AC0000721A60FB681B681A69FB685B6AD2B22C
:1017BC001A70FB685B6A5A1CFB685A62FB681B8DCB
:1017CC00013B9AB2FB681A85FB685B8D9BB2013BAF
:1017DC009AB2FB685A8562B600BFFB681B681A692F
:1017EC00FB685B6AD2B21A70FB685B6A5A1CFB68B6
:1017FC005A62FB681B8D013B9AB2FB681A85FB6829
:10180C005B8D9BB2013B9AB2FB685A854EE07A6ABB
:10181C00396BF86800F062FB0346002B01D0012302
:10182C0058E0FB681B681A69FB685B6AD2B21A70D5
:10183C00FB685B6A5A1CFB685A62FB681B8D013B98
:10184C009AB2FB681A85FB685B8D9BB2013B9AB21E
:10185C00FB685A85FB681B685B6903F00403042B67
:10186C0024D1FB681B8D032B07D1FB681B681A68FE
:10187C00FB681B6822F480621A60FB681B681A699B
:10188C00FB685B6AD2B21A70FB685B6A5A1CFB6815
:10189C005A62FB681B8D013B9AB2FB681A85FB6888
:1018AC005B8D9BB2013B9AB2FB685A85FB681B8D22
:1018BC00002B7FF488AEFB68202283F83D20FB6868
:1018CC00002283F83E20FB68002283F83C20002392
:1018DC0000E0022318462837BD4680BD04000100F5
:1018EC000000002089B5F81480B588B002AFF8600C
:1018FC007A603B600B467B81FB68DB6A7B617B69B2
:10190C00082B06D07B69012B03D07B6913F5803F34
:10191C0008D1FB681B681A68FB681B6842F480726C
:10192C001A600BE0FB681B6B122B07D1FB681B6862
:10193C001A68FB681B6842F480721A603B6800935B
:10194C007B6800224FF00111F86800F01DF9034686
:10195C00002B0DD0FB681B681B6803F48073B3F578
:10196C00807F03D1FB684FF400721A64032335E0C7
:10197C00FB681B69B3F5804F08D17B89DBB21A4633
:10198C00FB681B6802F0FE021A611BE07B89DB110D
:10199C00DBB203F00603DBB263F00F03DAB2FB68D1
:1019AC001B681A613B687A680E49F86800F066F9A2
:1019BC000346002B01D0012310E07B89DAB2FB68CF
:1019CC001B681A613B687A680749F86800F056F999
:1019DC000346002B01D0012300E0002318461837E2
:1019EC00BD4680BD080001000200010080B588B032
:1019FC0002AFF8607A603B600B467B81FB68DB6A68
:101A0C007B61FB681B681A68FB681B6842F4806288
:101A1C001A607B69082B06D07B69012B03D07B698C
:101A2C0013F5803F08D1FB681B681A68FB681B68BC
:101A3C0042F480721A600BE0FB681B6B112B07D110
:101A4C00FB681B681A68FB681B6842F480721A609A
:101A5C003B6800937B6800224FF00111F86800F09E
:101A6C0093F80346002B0DD0FB681B681B6803F42E
:101A7C008073B3F5807F03D1FB684FF400721A6456
:101A8C00032379E0FB681B69B3F5804F08D17B8990
:101A9C00DBB243F00103DAB2FB681B681A615FE04A
:101AAC007B89DB11DBB203F00603DBB263F00F03BF
:101ABC00DAB2FB681B681A613B687A683049F868CF
:101ACC0000F0DCF80346002B01D0012354E07B89A5
:101ADC00DAB2FB681B681A613B687A682949F868B6
:101AEC0000F0CCF80346002B01D0012344E0002386
:101AFC003B61FB681B685B693B61FB681B689B690E
:101B0C003B613B69FB681B681A68FB681B6842F405
:101B1C0080721A603B6800937B6800224FF00111C1
:101B2C00F86800F031F80346002B0DD0FB681B68F9
:101B3C001B6803F48073B3F5807F03D1FB684FF40B
:101B4C0000721A64032317E07B89DB11DBB203F00C
:101B5C000603DBB263F00E03DAB2FB681B681A6192
:101B6C003B687A680749F86800F088F80346002B50
:101B7C0001D0012300E0002318461837BD4680BD74
:101B8C00080001000200010080B584B000AFF860CD
:101B9C00B9603B601346FB7148E03B68B3F1FF3F13
:101BAC0044D0FEF75DFF0246BB69D31A3A689A42ED
:101BBC0002D33B68002B39D1BB681B0CDBB2012B69
:101BCC000DD1FB681B685B69DA43BB6813409BB2A1
:101BDC00002B0CBF01230023DBB21A460CE0FB6880
:101BEC001B689B69DA43BB6813409BB2002B0CBF8C
:101BFC0001230023DBB21A46FB799A4216D1FB680B
:101C0C0000221A63FB68202283F83D20FB68002227
:101C1C0083F83E20FB681B6C43F02002FB681A64BF
:101C2C00FB68002283F83C20012323E0BB681B0CDB
:101C3C00DBB2012B0DD1FB681B685B69DA43BB6817
:101C4C0013409BB2002B0CBF01230023DBB21A46BE
:101C5C000CE0FB681B689B69DA43BB6813409BB2C2
:101C6C00002B0CBF01230023DBB21A46FB799A42EE
:101C7C0093D0002318461037BD4680BD80B584B084
:101C8C0000AFF860B9607A603B6071E0FB681B687C
:101C9C005B6903F48063B3F5806F23D1FB681B6829
:101CAC001A68FB681B6842F400721A60FB681B68B8
:101CBC006FF480625A61FB6800221A63FB68202271
:101CCC0083F83D20FB68002283F83E20FB681B6CE8
:101CDC0043F00402FB681A64FB68002283F83C2082
:101CEC00012367E07B68B3F1FF3F41D0FEF7B8FEFC
:101CFC0002463B68D31A7A689A4202D37B68002B5F
:101D0C0036D1BB681B0CDBB2012B0CD1FB681B68FA
:101D1C005B69DA43BB6813409BB2002B14BF0123F1
:101D2C000023DBB20BE0FB681B689B69DA43BB68E2
:101D3C0013409BB2002B14BF01230023DBB2002BFA
:101D4C0016D0FB6800221A63FB68202283F83D2022
:101D5C00FB68002283F83E20FB681B6C43F02002DA
:101D6C00FB681A64FB68002283F83C20012321E005
:101D7C00BB681B0CDBB2012B0CD1FB681B685B69CD
:101D8C00DA43BB6813409BB2002B14BF0123002322
:101D9C00DBB20BE0FB681B689B69DA43BB68134042
:101DAC009BB2002B14BF01230023DBB2002B7FF46A
:101DBC006DAF002318461037BD4680BD80B584B08A
:101DCC0000AFF860B9607A6034E0F86800F0E3F8CE
:101DDC000346002B01D0012334E0BB68B3F1FF3F75
:101DEC0028D0FEF73DFE02467B68D31ABA689A42A9
:101DFC0002D3BB68002B1DD1FB681B685B6903F029
:101E0C008003802B16D0FB6800221A63FB6820220B
:101E1C0083F83D20FB68002283F83E20FB681B6C96
:101E2C0043F02002FB681A64FB68002283F83C2014
:101E3C00012307E0FB681B685B6903F08003802BC0
:101E4C00C3D1002318461037BD4680BD80B584B081
:101E5C0000AFF860B9607A6034E0F86800F09BF885
:101E6C000346002B01D0012334E0BB68B3F1FF3FE4
:101E7C0028D0FEF7F5FD02467B68D31ABA689A4261
:101E8C0002D3BB68002B1DD1FB681B685B6903F098
:101E9C000403042B16D0FB6800221A63FB68202273
:101EAC0083F83D20FB68002283F83E20FB681B6C06
:101EBC0043F02002FB681A64FB68002283F83C2084
:101ECC00012307E0FB681B685B6903F00403042B28
:101EDC00C3D1002318461037BD4680BD80B584B0F1
:101EEC0000AFF860B9607A6049E0FB681B685B6919
:101EFC0003F01003102B19D1FB681B686FF0100254
:101F0C005A61FB6800221A63FB68202283F83D208B
:101F1C00FB68002283F83E20FB681A6CFB681A648D
:101F2C00FB68002283F83C20012330E0FEF798FD8B
:101F3C0002467B68D31ABA689A4202D3BB68002B5C
:101F4C001DD1FB681B685B6903F04003402B16D066
:101F5C00FB6800221A63FB68202283F83D20FB6893
:101F6C00002283F83E20FB681B6C43F02002FB68C8
:101F7C001A64FB68002283F83C20012307E0FB680D
:101F8C001B685B6903F04003402BAED1002318465D
:101F9C001037BD4680BD80B483B000AF78607B68DD
:101FAC001B685B6903F48063B3F5806F1BD17B689E
:101FBC001B686FF480625A617B6800221A637B682D
:101FCC00202283F83D207B68002283F83E207B682A
:101FDC001B6C43F004027B681A647B68002283F854
:101FEC003C20012300E0002318460C37BD4680BC82
:101FFC007047000080B586B000AF78607B68002B1E
:10200C0001D1012372E27B681B6803F00103002BF2
:10201C0000F08780924B5B6803F00C03042B0CD010
:10202C008F4B5B6803F00C03082B12D18C4B5B6855
:10203C0003F48033B3F5803F0BD1894B1B6803F459
:10204C000033002B6CD07B685B68002B68D10123BC
:10205C004CE27B685B68B3F5803F06D1804B1B6814
:10206C007F4A43F4803313602EE07B685B68002B5F
:10207C000CD17B4B1B687A4A23F480331360784B6A
:10208C001B68774A23F4802313601DE07B685B6830
:10209C00B3F5A02F0CD1724B1B68714A43F480230B
:1020AC0013606F4B1B686E4A43F4803313600BE074
:1020BC006B4B1B686A4A23F480331360684B1B68B4
:1020CC00674A23F4802313607B685B68002B13D072
:1020DC00FEF7C6FC386108E0FEF7C2FC02463B691D
:1020EC00D31A642B01D9032300E25D4B1B6803F464
:1020FC000033002BF0D014E0FEF7B2FC386108E09E
:10210C00FEF7AEFC02463B69D31A642B01D90323BC
:10211C00ECE1534B1B6803F40033002BF0D100E0CF
:10212C0000BF7B681B6803F00203002B63D04C4B91
:10213C005B6803F00C03002B0BD0494B5B6803F07E
:10214C000C03082B1CD1464B5B6803F48033002B2B
:10215C0016D1434B1B6803F00203002B05D07B68A0
:10216C001B69012B01D00123C0E13D4B1B6823F0FF
:10217C00F8027B685B69DB00394913430B603AE07A
:10218C007B681B69002B20D0364B01221A60FEF7AE
:10219C0067FC386108E0FEF763FC02463B69D31A22
:1021AC00022B01D90323A1E12D4B1B6803F0020381
:1021BC00002BF0D02A4B1B6823F0F8027B685B697C
:1021CC00DB00274913430B6015E0264B00221A60F5
:1021DC00FEF746FC386108E0FEF742FC02463B691C
:1021EC00D31A022B01D9032380E11D4B1B6803F08A
:1021FC000203002BF0D17B681B6803F00803002B53
:10220C003AD07B689B69002B19D0174B01221A60BE
:10221C00FEF726FC386108E0FEF722FC02463B691B
:10222C00D31A022B01D9032360E10D4B5B6A03F037
:10223C000203002BF0D0012000F0BAFA1CE00A4B8C
:10224C0000221A60FEF70CFC38610FE0FEF708FC68
:10225C0002463B69D31A022B08D9032346E100BF7F
:10226C00001002400000424280044242924B5B6AE2
:10227C0003F00203002BE9D17B681B6803F0040315
:10228C00002B00F0A6800023FB758B4BDB6903F061
:10229C008053002B0DD1884BDB69874A43F0805368
:1022AC00D361854BDB6903F08053BB60BB680123B2
:1022BC00FB75824B1B6803F48073002B18D17F4B8A
:1022CC001B687E4A43F480731360FEF7C9FB3861C8
:1022DC0008E0FEF7C5FB02463B69D31A642B01D913
:1022EC00032303E1754B1B6803F48073002BF0D0C0
:1022FC007B68DB68012B06D16F4B1B6A6E4A43F07F
:10230C00010313622DE07B68DB68002B0CD16A4B58
:10231C001B6A694A23F001031362674B1B6A664A06
:10232C0023F0040313621CE07B68DB68052B0CD1E3
:10233C00614B1B6A604A43F0040313625E4B1B6AD9
:10234C005D4A43F0010313620BE05B4B1B6A5A4A74
:10235C0023F001031362584B1B6A574A23F0040302
:10236C0013627B68DB68002B15D0FEF779FB3861B4
:10237C000AE0FEF775FB02463B69D31A41F288323C
:10238C00934201D90323B1E04B4B1B6A03F00203C8
:10239C00002BEED014E0FEF763FB38610AE0FEF789
:1023AC005FFB02463B69D31A41F28832934201D952
:1023BC0003239BE0404B1B6A03F00203002BEED17E
:1023CC00FB7D012B05D13C4BDB693B4A23F0805351
:1023DC00D3617B68DB69002B00F08780364B5B6830
:1023EC0003F00C03082B61D07B68DB69022B46D110
:1023FC00334B00221A60FEF733FB386108E0FEF71E
:10240C002FFB02463B69D31A022B01D903236DE043
:10241C00294B1B6803F00073002BF0D17B681B6AFF
:10242C00B3F5803F08D1244B5B6823F400327B6802
:10243C009B68214913434B601F4B5B6823F4741258
:10244C007B68196A7B685B6A0B431B4913434B60BF
:10245C001B4B01221A60FEF703FB386108E0FEF704
:10246C00FFFA02463B69D31A022B01D903233DE044
:10247C00114B1B6803F00073002BF0D035E0104BB0
:10248C0000221A60FEF7ECFA386108E0FEF7E8FA71
:10249C0002463B69D31A022B01D9032326E0064BD3
:1024AC001B6803F00073002BF0D11EE07B68DB6926
:1024BC00012B07D1012319E00010024000700040ED
:1024CC00600042420B4B5B68FB60FB6803F480329C
:1024DC007B681B6A9A4206D1FB6803F470127B6816
:1024EC005B6A9A4201D0012300E00023184618379A
:1024FC00BD4680BD0010024080B584B000AF78604E
:10250C0039607B68002B01D10123D0E06A4B1B683A
:10251C0003F007033A689A4210D9674B1B6823F003
:10252C00070265493B6813430B60634B1B6803F060
:10253C0007033A689A4201D00123B8E07B681B6814
:10254C0003F00203002B20D07B681B6803F004030C
:10255C00002B05D0594B5B68584A43F4E063536039
:10256C007B681B6803F00803002B05D0534B5B689A
:10257C00524A43F460535360504B5B6823F0F002B3
:10258C007B689B684D4913434B607B681B6803F069
:10259C000103002B40D07B685B68012B07D1474BB4
:1025AC001B6803F40033002B15D101237FE07B68FB
:1025BC005B68022B07D1414B1B6803F00073002BA7
:1025CC0009D1012373E03D4B1B6803F00203002B80
:1025DC0001D101236BE0394B5B6823F003027B686C
:1025EC005B68364913434B60FEF73AFAF8600AE031
:1025FC00FEF736FA0246FB68D31A41F28832934250
:10260C0001D9032353E02D4B5B6803F00C027B686C
:10261C005B689B009A42EBD1274B1B6803F00703C6
:10262C003A689A4210D2244B1B6823F007022249C5
:10263C003B6813430B60204B1B6803F007033A689D
:10264C009A4201D0012332E07B681B6803F004033B
:10265C00002B08D0194B5B6823F4E0627B68DB68C5
:10266C00164913434B607B681B6803F00803002B6F
:10267C0009D0124B5B6823F460527B681B69DB004A
:10268C000E4913434B6000F021F802460B4B5B687C
:10269C001B0903F00F030A49CB5C22FA03F3094A26
:1026AC001360094B1B681846FEF798F9002318466F
:1026BC001037BD4680BD00BF002002400010024014
:1026CC007C280008000000200400002080B487B0A3
:1026DC0000AF0023FB600023BB6000237B61002361
:1026EC007B6000233B611E4B5B68FB60FB6803F067
:1026FC000C03042B02D0082B03D027E0194B3B61B1
:10270C0027E0FB689B0C03F00F03174AD35C7B603C
:10271C00FB6803F48033002B10D0114B5B685B0C0F
:10272C0003F00103114AD35CBB607B680D4A03FBC9
:10273C0002F2BB68B2FBF3F37B6104E07B680C4AEA
:10274C0002FB03F37B617B693B6102E0054B3B6160
:10275C0000BF3B6918461C37BD4680BC704700BFA4
:10276C000010024000127A0094280008A4280008E7
:10277C0000093D0080B400AF024B1B681846BD46F3
:10278C0080BC70470000002080B500AFFFF7F2FF5F
:10279C000246054B5B681B0A03F007030349CB5C3D
:1027AC0022FA03F3184680BD001002408C28000862
:1027BC0080B485B000AF78600A4B1B680A4AA2FB54
:1027CC0003235B0A7A6802FB03F3FB6000BFFB6820
:1027DC005A1EFA60002BF9D100BF00BF1437BD465A
:1027EC0080BC704700000020D34D621003460244A9
:1027FC00934200D1704703F8011BF9E770B500262E
:10280C000C4D0D4C641BA410A64209D100F01AF813
:10281C0000260A4D0A4C641BA410A64205D170BDBB
:10282C0055F8043B98470136EEE755F8043B9847BA
:10283C000136F2E7A8280008A8280008A8280008F4
:10284C00AC280008F8B500BFF8BC08BC9E46704721
:0C285C00F8B500BFF8BC08BC9E467047F1
:102868002000000056000000410000004300000066
:1028780057000000000000000000000001020304EF
:10288800060708090000000001020304020304050A
:10289800060708090A0B0C0D0E0F101001020000A4
:0428A80031010008F2
:0428AC000D01000812
:0C28B00000127A0010000000010000007F
:040000050800097175
:00000001FF
